:100000006CC0000087C0000085C0000083C00000F5
:1000100081C000007FC000007DC000007BC00000E8
:1000200079C0000077C0000075C000008FC40000D8
:1000300000C1000034C1000068C100009CC1000084
:10004000D0C1000004C2000038C200006CC2000031
:10005000A0C20000D4C200005DC000005BC0000070
:1000600059C0000057C0000055C0000053C0000038
:1000700051C000004FC000004DC000004BC0000048
:1000800049C0000047C0000046C0000043C0000057
:10009000ECC2000020C3000054C3000088C300006D
:1000A00039C0000037C0000035C00000084AD73B07
:1000B0003BCE016E84BCBFFDC12F3D6C74319ABD37
:1000C00056833DDA3D00C77F11BED9E4BB4C3E915B
:1000D0006BAAAABE000000803F0011241FBECFEF14
:1000E000CDBFDFE2DEBF10E2A0E0B0E2E6E8F6E47A
:1000F00002C005900D92A033B107D9F720E2A0E32A
:10010000B0E201C01D92A737B207E1F70E94361195
:100110000C94412375CF1F920F9200903F000F92D5
:1001200011242F933F934F935F936F937F938F93FC
:100130009F93AF93BF93EF93FF93CF93DF9300D041
:1001400000D0CDB7DEB7209157203091582080E005
:1001500092E089839A8381E08B831C8289819A81D2
:10016000AC01405E5F4F8C81882F90E08295929524
:10017000907F9827807F9827840F951FFC018481AA
:100180009581AC0161E080E092E0F9010995249647
:10019000CDBFDEBFDF91CF91FF91EF91BF91AF91C6
:1001A0009F918F917F916F915F914F913F912F918F
:1001B0000F9000923F000F901F901895CF93DF9300
:1001C0001F92CDB7DEB78FE390E0FC018081898379
:1001D000F89489810F90DF91CF910895CF93DF93A9
:1001E0001F92CDB7DEB789838FE390E02981FC01B0
:1001F00020830F90DF91CF910895CF93DF9300D0AC
:10020000CDB7DEB78A83DADF89838A81882F90E0D1
:100210009C012F583F4DF90120812F5F8F589F4D32
:10022000FC0120838981DADF0F900F90DF91CF915D
:1002300008951F920F9200903F000F9211242F9368
:100240003F934F935F936F937F938F939F93AF935E
:10025000BF93EF93FF93CF93DF93CDB7DEB780913A
:10026000302090913120009731F080913020909192
:100270003120FC010995DF91CF91FF91EF91BF9162
:10028000AF919F918F917F916F915F914F913F912E
:100290002F910F9000923F000F901F9018951F9282
:1002A0000F9200903F000F9211242F933F934F9392
:1002B0005F936F937F938F939F93AF93BF93EF93CE
:1002C000FF93CF93DF93CDB7DEB78091322090912B
:1002D0003320009731F08091322090913320FC013F
:1002E0000995DF91CF91FF91EF91BF91AF919F91D0
:1002F0008F917F916F915F914F913F912F910F90CF
:1003000000923F000F901F9018951F920F9200903F
:100310003F000F9211242F933F934F935F936F935E
:100320007F938F939F93AF93BF93EF93FF93CF935D
:10033000DF93CDB7DEB780913420909135200097C0
:1003400031F08091342090913520FC010995DF91A6
:10035000CF91FF91EF91BF91AF919F918F917F913D
:100360006F915F914F913F912F910F9000923F00BD
:100370000F901F9018951F920F9200903F000F92C0
:1003800011242F933F934F935F936F937F938F939A
:100390009F93AF93BF93EF93FF93CF93DF93CDB72B
:1003A000DEB78091362090913720009731F0809110
:1003B000362090913720FC010995DF91CF91FF9174
:1003C000EF91BF91AF919F918F917F916F915F91CD
:1003D0004F913F912F910F9000923F000F901F90EF
:1003E00018951F920F9200903F000F9211242F93A7
:1003F0003F934F935F936F937F938F939F93AF93AD
:10040000BF93EF93FF93CF93DF93CDB7DEB7809188
:10041000382090913920009731F0809138209091C8
:100420003920FC010995DF91CF91FF91EF91BF91A8
:10043000AF919F918F917F916F915F914F913F917C
:100440002F910F9000923F000F901F9018951F92D0
:100450000F9200903F000F9211242F933F934F93E0
:100460005F936F937F938F939F93AF93BF93EF931C
:10047000FF93CF93DF93CDB7DEB780913A20909171
:100480003B20009731F080913A2090913B20FC0175
:100490000995DF91CF91FF91EF91BF91AF919F911E
:1004A0008F917F916F915F914F913F912F910F901D
:1004B00000923F000F901F9018951F920F9200908E
:1004C0003F000F9211242F933F934F935F936F93AD
:1004D0007F938F939F93AF93BF93EF93FF93CF93AC
:1004E000DF93CDB7DEB780913C2090913D200097FF
:1004F00031F080913C2090913D20FC010995DF91E5
:10050000CF91FF91EF91BF91AF919F918F917F918B
:100510006F915F914F913F912F910F9000923F000B
:100520000F901F9018951F920F9200903F000F920E
:1005300011242F933F934F935F936F937F938F93E8
:100540009F93AF93BF93EF93FF93CF93DF93CDB779
:10055000DEB780913E2090913F20009731F080914E
:100560003E2090913F20FC010995DF91CF91FF91B2
:10057000EF91BF91AF919F918F917F916F915F911B
:100580004F913F912F910F9000923F000F901F903D
:1005900018951F920F9200903F000F9211242F93F5
:1005A0003F934F935F936F937F938F939F93AF93FB
:1005B000BF93EF93FF93CF93DF93CDB7DEB78091D7
:1005C000402090914120009731F0809140209091FF
:1005D0004120FC010995DF91CF91FF91EF91BF91EF
:1005E000AF919F918F917F916F915F914F913F91CB
:1005F0002F910F9000923F000F901F9018951F921F
:100600000F9200903F000F9211242F933F934F932E
:100610005F936F937F938F939F93AF93BF93EF936A
:10062000FF93CF93DF93CDB7DEB7809142209091B7
:100630004320009731F08091422090914320FC01AB
:100640000995DF91CF91FF91EF91BF91AF919F916C
:100650008F917F916F915F914F913F912F910F906B
:1006600000923F000F901F9018951F920F920090DC
:100670003F000F9211242F933F934F935F936F93FB
:100680007F938F939F93AF93BF93EF93FF93CF93FA
:10069000DF93CDB7DEB7809144209091452000973D
:1006A00031F08091442090914520FC010995DF9123
:1006B000CF91FF91EF91BF91AF919F918F917F91DA
:1006C0006F915F914F913F912F910F9000923F005A
:1006D0000F901F9018951F920F9200903F000F925D
:1006E00011242F933F934F935F936F937F938F9337
:1006F0009F93AF93BF93EF93FF93CF93DF93CDB7C8
:10070000DEB78091462090914720009731F080918C
:10071000462090914720FC010995DF91CF91FF91F0
:10072000EF91BF91AF919F918F917F916F915F9169
:100730004F913F912F910F9000923F000F901F908B
:1007400018951F920F9200903F000F9211242F9343
:100750003F934F935F936F937F938F939F93AF9349
:10076000BF93EF93FF93CF93DF93CDB7DEB7809125
:10077000482090914920009731F080914820909135
:100780004920FC010995DF91CF91FF91EF91BF9135
:10079000AF919F918F917F916F915F914F913F9119
:1007A0002F910F9000923F000F901F9018951F926D
:1007B0000F9200903F000F9211242F933F934F937D
:1007C0005F936F937F938F939F93AF93BF93EF93B9
:1007D000FF93CF93DF93CDB7DEB780914A209091FE
:1007E0004B20009731F080914A2090914B20FC01E2
:1007F0000995DF91CF91FF91EF91BF91AF919F91BB
:100800008F917F916F915F914F913F912F910F90B9
:1008100000923F000F901F901895CF93DF9300D068
:100820001F92CDB7DEB78A839B83C8DC89838A8118
:100830009B81811528E0920749F461E083E00E94E2
:10084000AD0D64E083E00E94AD0D21C08A819B81E3
:10085000803428E0920749F462E083E00E94AD0D05
:1008600064E083E00E94AD0D12C08A819B818034D8
:1008700029E0920749F462E084E00E94AD0D64E053
:1008800084E00E94AD0D03C08981A8DC04C081E032
:10089000B4DC8981A3DC2396CDBFDEBFDF91CF918D
:1008A0000895CF93DF9300D000D0CDB7DEB7898312
:1008B0009A836B837C8389819A81811528E09207D2
:1008C00039F48B819C81809330209093312019C022
:1008D00089819A81803428E0920739F48B819C8148
:1008E00080933C2090933D200CC089819A81803474
:1008F00029E0920731F48B819C818093442090936E
:1009000045202496CDBFDEBFDF91CF910895CF93D0
:10091000DF931F92CDB7DEB78FE390E0FC018081BB
:100920008983F89489810F90DF91CF910895CF93B7
:10093000DF931F92CDB7DEB789838FE390E02981E3
:10094000FC0120830F90DF91CF9108951F920F92A9
:1009500000903F000F9211242F933F934F935F938A
:100960006F937F938F939F93AF93BF93EF93FF9377
:10097000CF93DF93CDB7DEB74FD1DF91CF91FF910A
:10098000EF91BF91AF919F918F917F916F915F9107
:100990004F913F912F910F9000923F000F901F9029
:1009A0001895CF93DF9300D0CDB7DEB789839A83B4
:1009B00089819A81FC018481882F90E08370992736
:1009C00021E08130910509F020E0822F0F900F90F7
:1009D000DF91CF910895CF93DF9300D0CDB7DEB7ED
:1009E0008A8305C08A81882311F086EF0FC0809129
:1009F00055208823B9F78BDF898381E080935520C8
:100A000080E880935620898192DF80E00F900F90DC
:100A1000DF91CF910895CF93DF931F92CDB7DEB7CB
:100A20000000809156208038E1F300C080914C2076
:100A300090914D20B6DF982F81E089278823B1F768
:100A40008091562089831092552089810F90DF91E3
:100A5000CF910895CF93DF93CDB7DEB72897CDBF61
:100A6000DEBF80914C2090914D2089839A838091A4
:100A70004E2090914F208B839C8320915020309169
:100A800051208B819C81FC01848195812817390735
:100A9000DCF48B819C8101968D839E838091502014
:100AA000909151209C012F5F3F4F20935020309315
:100AB00051202D813E81820F931FFC01208189816D
:100AC0009A81FC0127833FC020915220309153200E
:100AD0008B819C81FC01808591852817390760F501
:100AE00080915420882359F089819A81FC01868164
:100AF000282F216089819A81FC01268324C08B8163
:100B00009C81FC01868197818F83988780915220F8
:100B1000909153209C012F5F3F4F209352203093A0
:100B200053202F813885820F931FFC0120818981FA
:100B30009A81FC01278307C089819A8123E0FC0107
:100B40002383109256202896CDBFDEBFDF91CF9130
:100B50000895CF93DF93CDB7DEB72697CDBFDEBF25
:100B600080914C2090914D2089839A8380914E20D2
:100B700090914F208B839C83209152203091532061
:100B80008B819C81FC018085918528173907B0F500
:100B90008B819C81FC01868197818D839E838091CE
:100BA0005220909153209C012F5F3F4F2093522061
:100BB000309353202D813E81820F931F29813A81EA
:100BC000F9012781FC01208320915220309153208C
:100BD0008B819C81FC01808591852817390730F431
:100BE00089819A8122E0FC01238310C089819A8146
:100BF00027E0FC0123831092562008C089819A8146
:100C000023E0FC01238389EF809356202696CDBFF5
:100C1000DEBFDF91CF910895CF93DF931F92CDB7C1
:100C2000DEB780914C2090914D20FC018481898316
:100C30008981882F90E088709927009799F080919A
:100C40004C2090914D2029812860FC0124838091C3
:100C50004C2090914D2023E0FC01238386EF80936C
:100C600056202AC08981882F90E0847099270097A8
:100C700039F48981882F90E080719927009759F085
:100C800080914C2090914D2023E0FC0123838FEF35
:100C90008093562011C08981882F90E08074992715
:100CA000009711F0D7DE08C08981882314F451DF42
:100CB00003C08BEF809356200F90DF91CF91089562
:100CC000CF93DF93CDB7DEB72597CDBFDEBF8A8345
:100CD0009B836C837D8388EB89838C819D81FC0160
:100CE00084819581A681B781282F8A819B81FC010F
:100CF00025838A819B812981FC0121838A819B81B3
:100D000021E0FC012483109255201092562080EAA5
:100D100090E020EA30E0F90122812260FC01228388
:100D2000789480E02596CDBFDEBFDF91CF91089506
:100D3000CF93DF93CDB7DEB72797CDBFDEBF8B83D1
:100D40009C836D837E834F838B819C81009721F0F0
:100D50008D819E81009711F488EF49C08D819E811D
:100D6000FC01828538DE89838981882309F03EC0B1
:100D70008B819C8180934C2090934D208D819E810E
:100D800080934E2090934F2010925020109251202B
:100D900010925220109253208F81809354208D8185
:100DA0009E81FC018081880F8A838D819E81FC0158
:100DB00084819581009729F49F8181E08927882388
:100DC00041F080914C2090914D202A81FC01268396
:100DD0000BC08F81882341F080914C2090914D2051
:100DE0002A812160FC01268316DE8983898127966A
:100DF000CDBFDEBFDF91CF910895CF93DF93CDB705
:100E0000DEB780E894E8AEE1B0E0BC01CD01DF914F
:100E1000CF910895CF93DF931F92CDB7DEB719829C
:100E2000ECDFDC01CB012981222F30E0022E04C04F
:100E3000B695A795979587950A94D2F7BC01CD01F1
:100E40000F90DF91CF910895CF93DF93CDB7DEB7A9
:100E5000E1DFDC01CB01BC01CD01DF91CF91089531
:100E6000CF93DF93CDB7DEB7EFDFDC01CB01BC0161
:100E7000CD01DF91CF910895CF93DF93CDB7DEB74A
:100E8000EFDFDC01CB01BC01CD01DF91CF910895F3
:100E9000CF93DF9300D0CDB7DEB789839A83898162
:100EA0009A81009709F495C089819A81811524E07F
:100EB000920721F464E080E050D68BC089819A814A
:100EC000803821E0920721F462E080E046D681C0BC
:100ED00089819A81811521E0920721F461E080E007
:100EE0003CD677C089819A81803823E0920721F42B
:100EF00061E081E032D66DC089819A81811522E05E
:100F0000920721F462E081E028D663C089819A814A
:100F1000811523E0920721F464E081E01ED659C0D8
:100F200089819A81811528E0920721F461E083E0AC
:100F300014D64FC089819A81803428E0920721F429
:100F400062E083E00AD645C089819A81803429E035
:100F5000920721F462E084E000D63BC089819A8147
:100F6000803B28E0920721F464E083E0F6D531C0AD
:100F700089819A81803E28E0920721F468E083E02D
:100F8000ECD527C089819A81803C28E0920721F422
:100F900060E183E0E2D51DC089819A81803C29E02F
:100FA000920721F460E184E0D8D513C089819A8149
:100FB000803824E0920721F460E483E0CED509C0B4
:100FC00089819A81803624E0920719F460E880E0F4
:100FD000C4D50F900F90DF91CF910895CF93DF93F9
:100FE00000D000D0CDB7DEB789839A836B837C8332
:100FF0002B813C8189819A8141E0B90199DE249657
:10100000CDBFDEBFDF91CF910895CF93DF9300D0A6
:1010100000D0CDB7DEB789839A836B837C832B8125
:101020003C8189819A8140E0B90182DE2496CDBF5E
:10103000DEBFDF91CF910895CF93DF9300D0CDB77E
:10104000DEB789839A8389819A81FC018181282F67
:10105000286089819A81FC0121830F900F90DF9194
:10106000CF910895CF93DF93CDB7DEB72D97CDBF46
:10107000DEBF80E89AE1A6E0B0E089839A83AB8383
:10108000BC8380E58987F8DEDC01CB0120E035E315
:101090004CE050E0BC01CD010E94E522DA01C9011B
:1010A0000597A109B1098D839E83AF83B88780E836
:1010B00094E0EEDECE010196BC0180E894E000DE13
:1010C00080E894E0B9DF60E081E23ED167E580E24C
:1010D0003BD164E684E238D160E285E235D160E05C
:1010E00086E232D18FE056D1893411F481E001C01B
:1010F00080E02D96CDBFDEBFDF91CF910895CF93D5
:10110000DF93CDB7DEB76E97CDBFDEBF81E090E055
:10111000888F998F88EA8D8B8EE18C8BCE010D960E
:101120008A8F9B8F86E090E08C8F9D8F1E8ECE01E4
:101130004496BC0180E894E051DF882311F080E000
:10114000FDC08D85882F90E089839A838E85882FB6
:1011500090E08B839C838F85882F90E08D839E8386
:101160008889882F90E08F8398878989882F90E0DD
:1011700089879A878A89882F90E08B879C878B81C3
:101180009C81382F222789819A81822B932B9595D8
:101190008795959587959595879595958795AA2790
:1011A00097FDA095BA2FBC01CD010E94FA20DC0169
:1011B000CB018093592090935A20A0935B20B09349
:1011C0005C208F819885382F22278D819E81822BEC
:1011D000932B959587959595879595958795959555
:1011E0008795AA2797FDA095BA2FBC01CD010E9433
:1011F000FA20DC01CB0180935D2090935E20A093C8
:101200005F20B09360208B859C85382F22278985AD
:101210009A85822B932B959587959595879595958E
:10122000879595958795AA2797FDA095BA2FBC011C
:10123000CD010E94FA20DC01CB01809361209093C4
:101240006220A0936320B093642088E88D8BCE0148
:101250004496BC0180E894E0C1DE882311F080E070
:101260006DC08D85882F90E089839A838E85882F25
:1012700090E08B839C838F85882F90E08D839E8365
:101280008889882F90E08F8398878989882F90E0BC
:1012900089879A878A89882F90E08B879C878B81A2
:1012A0009C81382F222789819A81822B932BAA2710
:1012B00097FDA095BA2FBC01CD010E94FA20DC0158
:1012C000CB018093652090936620A0936720B09314
:1012D00068208F819885382F22278D819E81822BCF
:1012E000932BAA2797FDA095BA2FBC01CD010E9490
:1012F000FA20DC01CB018093692090936A20A093AF
:101300006B20B0936C208B859C85382F2227898594
:101310009A85822B932BAA2797FDA095BA2FBC0103
:10132000CD010E94FA20DC01CB0180936D209093C7
:101330006E20A0936F20B093702081E06E96CDBF99
:10134000DEBFDF91CF910895CF93DF93CDB7DEB7A6
:101350006097CDBFDEBF8F87688B8F858983888933
:101360008A83188619868EE18C83CE0101968A873E
:101370009B8782E090E08C879D871E86CE01049635
:10138000BC0180E894E041DE6096CDBFDEBFDF9116
:10139000CF910895CF93DF93CDB7DEB72F97CDBF11
:1013A000DEBF8F8781E090E0888799878F858D8366
:1013B0008EE18C83CE0101968A879B8781E090E045
:1013C0008C879D871E86CE010496BC0180E894E040
:1013D00005DE882311F080E001C089812F96CDBF02
:1013E000DEBFDF91CF910895CF92DF92EF92FF920F
:1013F000CF93DF93CDB7DEB7E497CDBFDEBF80E0FC
:1014000090E0A0E8BFE38D839E83AF83B887198601
:101410001A861B861C861D861E861F86188A80914A
:10142000652090916620A0916720B0916820898BFB
:101430009A8BAB8BBC8B8091692090916A20A09194
:101440006B20B0916C208D8B9E8BAF8BB88F809171
:101450006D2090916E20A0916F20B0917020898FA7
:101460009A8FAB8FBC8FC988DA88EB88FC88809113
:10147000002090910120A0910220B0910320BC0196
:10148000CD010E94C720DC01CB01BC01CD010E942F
:10149000FA20DC01CB0120910C2030910D204091ED
:1014A0000E2050910F20BC01CD010E945B1FDC017A
:1014B000CB0120E030E040E050E4BC01CD010E94CF
:1014C0002520DC01CB019C01AD01C701B6010E94C2
:1014D0005A1FDC01CB01898B9A8BAB8BBC8BCD88DF
:1014E000DE88EF88F88C8091042090910520A091EF
:1014F0000620B0910720BC01CD010E94C720DC016D
:10150000CB01BC01CD010E94FA20DC01CB0120916E
:101510001020309111204091122050911320BC01D5
:10152000CD010E945B1FDC01CB0120E030E040E0F8
:1015300050E4BC01CD010E942520DC01CB019C01BF
:10154000AD01C701B6010E945A1FDC01CB018D8B92
:101550009E8BAF8BB88FC98CDA8CEB8CFC8C809116
:10156000082090910920A0910A20B0910B20BC0185
:10157000CD010E94C720DC01CB01BC01CD010E943E
:10158000FA20DC01CB0120911420309115204091EC
:10159000162050911720BC01CD010E945B1FDC0179
:1015A000CB0120E030E040E050E4BC01CD010E94DE
:1015B0002520DC01CB019C01AD01C701B6010E94D1
:1015C0005A1FDC01CB01898F9A8FAB8FBC8F9E0194
:1015D000235E3F4FCE014196A90169E570E2CBD071
:1015E000CE014D965FD09E01275D3F4FCE014D96B7
:1015F000A901BC0189E590E2BED0CE01899652D006
:101600009E012B5F3F4FCE018996B9017AD16B01C4
:101610007C019E012B5F3F4FCE014D96B90171D1E8
:10162000DC01CB01A7019601BC01CD010E94CE1FB8
:10163000DC01CB0120E030E044E353E4BC01CD0108
:101640000E942822DC01CB012BED3FE049E450E46D
:10165000BC01CD010E942520DC01CB0189839A8346
:10166000AB83BC8320E030E044E353E469817A81BA
:101670008B819C810E945B1FDC01CB0189839A8353
:10168000AB83BC8389819A81AB81BC81BC01CD01D4
:10169000E496CDBFDEBFDF91CF91FF90EF90DF905A
:1016A000CF900895CF93DF93CDB7DEB72697CDBF08
:1016B000DEBF8D839E832D813E818D819E81B90108
:1016C00020D1DC01CB01BC01CD010E948F22DC01C5
:1016D000CB0189839A83AB83BC838D819E81FC017E
:1016E00080819181A281B38129813A814B815C8182
:1016F000BC01CD010E942520DC01CB012D813E8162
:10170000F90180839183A283B3838D819E81FC0143
:1017100084819581A681B78129813A814B815C8141
:10172000BC01CD010E942520DC01CB012D813E8131
:10173000F90184839583A683B7838D819E81FC0103
:1017400080859185A285B38529813A814B815C8111
:10175000BC01CD010E942520DC01CB012D813E8101
:10176000F90180879187A287B3872696CDBFDEBF18
:10177000DF91CF910895CF92DF92EF92FF92CF93B6
:10178000DF93CDB7DEB72697CDBFDEBF89839A83BF
:101790006B837C834D835E8389819A81FC01848184
:1017A0009581A681B7812B813C81F9012085318506
:1017B00042855385BC01CD010E942822DC01CB016A
:1017C0006C017D0189819A81FC0180859185A285CA
:1017D000B3852B813C81F901248135814681578174
:1017E000BC01CD010E942822DC01CB019C01AD018E
:1017F000C701B6010E945A1FDC01CB012D813E8139
:10180000F90180839183A283B38389819A81FC014A
:1018100080859185A285B3852B813C81F90120814A
:10182000318142815381BC01CD010E942822DC011B
:10183000CB016C017D0189819A81FC0180819181BC
:10184000A281B3812B813C81F901208531854285BC
:101850005385BC01CD010E942822DC01CB019C01F3
:10186000AD01C701B6010E945A1FDC01CB012D81D9
:101870003E81F90184839583A683B78389819A8108
:10188000FC0180819181A281B3812B813C81F9018E
:101890002481358146815781BC01CD010E942822D7
:1018A000DC01CB016C017D0189819A81FC0184817D
:1018B0009581A681B7812B813C81F90120813181FD
:1018C00042815381BC01CD010E942822DC01CB0161
:1018D0009C01AD01C701B6010E945A1FDC01CB017A
:1018E0002D813E81F90180879187A287B387269653
:1018F000CDBFDEBFDF91CF91FF90EF90DF90CF9013
:101900000895CF92DF92EF92FF92CF93DF9300D0B2
:1019100000D0CDB7DEB789839A836B837C838981BE
:101920009A81FC0180819181A281B3812B813C81CC
:10193000F9012081318142815381BC01CD010E9496
:101940002822DC01CB016C017D0189819A81FC0197
:1019500084819581A681B7812B813C81F901248105
:10196000358146815781BC01CD010E942822DC01CE
:10197000CB019C01AD01C701B6010E945B1FDC01D8
:10198000CB016C017D0189819A81FC018085918563
:10199000A285B3852B813C81F90120853185428563
:1019A0005385BC01CD010E942822DC01CB019C01A2
:1019B000AD01C701B6010E945B1FDC01CB01BC0178
:1019C000CD012496CDBFDEBFDF91CF91FF90EF9088
:1019D000DF90CF900895CF93DF93CDB7DEB72697F2
:1019E000CDBFDEBF8A839B836C834D835E83198268
:1019F00021C08C81882F90E02981222F30E0022E97
:101A000002C0959587950A94E2F78170992700970F
:101A100071F08981882F90E040962A813B81820F66
:101A2000931F2D813E81232F3327FC012083898141
:101A30008F5F898389818830E0F28D819E818170FA
:101A400099270097D1F08D819E8182709927009708
:101A500039F08A819B8105962C81FC01208306C088
:101A60008A819B8106962C81FC0120838A819B813F
:101A700001962C81FC01208306C08A819B810296FD
:101A80002C81FC0120832696CDBFDEBFDF91CF9154
:101A90000895CF93DF931F92CDB7DEB78FE390E029
:101AA000FC0180818983F89489810F90DF91CF9127
:101AB0000895CF93DF931F92CDB7DEB789838FE36D
:101AC00090E02981FC0120830F90DF91CF91089550
:101AD000CF93DF9300D0CDB7DEB78A83DADF898377
:101AE00080E590E020E530E0F9012081322F2A8165
:101AF00020952323FC0120838981DBDF0F900F9049
:101B0000DF91CF910895CF93DF9300D000D0CDB770
:101B1000DEB780E790E089839A831C821B820DC028
:101B200089819A819C012F5F3F4F29833A832FEF50
:101B3000FC0120838B818F5F8B838B81873080F3C7
:101B400081E08C838C81882311F481E0C1DF2496AD
:101B5000CDBFDEBFDF91CF910895CF93DF9300D04B
:101B60001F92CDB7DEB78A836B8393DF89838A8127
:101B7000882F90E080599F4F2A81222F30E02059F2
:101B80003F4FF9012081322F2B8120952323FC0127
:101B9000208389818EDF2396CDBFDEBFDF91CF9179
:101BA0000895CF93DF93CDB7DEB72797CDBFDEBFC4
:101BB0008D836E837F838D8189838981882F90E0D7
:101BC0009C012770332781E090E002C0880F991FA5
:101BD0002A95E2F7682F8D818A838A818B838B8196
:101BE0008695869586958C838C81882F90E0880FCA
:101BF000991F82959295907F9827807F98279A5F6A
:101C00002E813F81A901E7DE2796CDBFDEBFDF91A0
:101C1000CF910895CF93DF93CDB7DEB761E070E049
:101C20008BE1BFDF61E070E085E1BBDF61E070E088
:101C300084E1B7DF61E070E083E1B3DF61E070E091
:101C400082E1AFDFDF91CF910895CF93DF931F92B1
:101C5000CDB7DEB719820AC08981882F90E08F58EE
:101C60009F4DFC01108289818F5F89838981853036
:101C700098F381E0809376200F90DF91CF910895C3
:101C8000CF93DF93CDB7DEB780E894E8AEE1B0E064
:101C9000BC01CD01DF91CF910895CF93DF931F92C7
:101CA000CDB7DEB71982ECDFDC01CB012981222F11
:101CB00030E0022E04C0B695A795979587950A94B3
:101CC000D2F7BC01CD010F90DF91CF910895CF9352
:101CD000DF93CDB7DEB7E1DFDC01CB01BC01CD0185
:101CE000DF91CF910895CF93DF93CDB7DEB7EFDFCC
:101CF000DC01CB01BC01CD01DF91CF910895CF93E1
:101D0000DF93CDB7DEB7EFDFDC01CB01BC01CD0146
:101D1000DF91CF9108956150710981099109611591
:101D2000710581059105B9F70895CF93DF93CDB77C
:101D3000DEB72B97CDBFDEBF8A876B878A85898305
:101D40008B858A8389818B838B818C838C8186951B
:101D5000869586958D838D81882F90E0880F991FB9
:101D600082959295907F9827807F98279A5F8E839F
:101D70009F838A818823A9F0898188878885882F15
:101D800090E09C012770332781E090E002C0880F2B
:101D9000991F2A95E2F7282F8E819F81FC012583C8
:101DA00014C0898189878985882F90E09C012770DC
:101DB000332781E090E002C0880F991F2A95E2F74F
:101DC000282F8E819F81FC0126832B96CDBFDEBFFD
:101DD000DF91CF910895CF93DF93CDB7DEB72897EA
:101DE000CDBFDEBF88878885898389818A838A8180
:101DF0008B838B818695869586958C838C81882FA5
:101E000090E0880F991F82959295907F9827807F08
:101E100098279A5F8D839E8389818F838F81882FF6
:101E200090E09C012770332781E090E002C0880F8A
:101E3000991F2A95E2F7282F8D819E81FC01278327
:101E40002896CDBFDEBFDF91CF910895CF93DF936A
:101E500000D01F92CDB7DEB789839A836B838981C7
:101E60009A81807499270097B1F489819A81FC0145
:101E70008681282F2C7F89819A81FC012683898184
:101E80009A81FC0196818B81292F282B89819A8147
:101E9000FC0126831BC089819A8180749927009751
:101EA000A9F089819A81FC018681282F2C7F898164
:101EB0009A81FC01268389819A81FC0196818B811C
:101EC000292F282B89819A81FC0126832396CDBF57
:101ED000DEBFDF91CF910895CF93DF9300D01F92A3
:101EE000CDB7DEB789839A836B8389819A818074A9
:101EF0009927009771F489819A81FC018081982F3C
:101F0000907F8B81892B282F89819A81FC012083E6
:101F100013C089819A8180749927009769F089811B
:101F20009A81FC018081982F907F8B81892B282FAB
:101F300089819A81FC0120832396CDBFDEBFDF918A
:101F4000CF910895CF93DF9300D000D0CDB7DEB707
:101F500089839A836B837C8389819A818074992792
:101F6000009741F489819A812B813C81FC0126A351
:101F700037A30DC089819A8180749927009739F021
:101F800089819A812B813C81FC0126A337A3249669
:101F9000CDBFDEBFDF91CF910895CF93DF9300D007
:101FA000CDB7DEB789839A8389819A818074992716
:101FB000009759F489819A81FC018485282F21603A
:101FC00089819A81FC01248710C089819A8180745B
:101FD0009927009751F089819A81FC018485282FE7
:101FE000216089819A81FC0124870F900F90DF91F5
:101FF000CF910895CF93DF9300D01F92CDB7DEB776
:1020000089839A836B8389819A8180749927009749
:1020100061F489819A81FC0194818B81292F282B7D
:1020200089819A81FC01248313C089819A818074FB
:102030009927009769F089819A81FC018481982F02
:102040008B818F70892B282F89819A81FC012483B1
:102050002396CDBFDEBFDF91CF910895CF93DF935D
:10206000CDB7DEB72597CDBFDEBF89839A836B835B
:102070004C835D8389819A81807499270097A9F5A3
:102080008B81882F90E082309105B1F083309105EB
:1020900024F48130910541F048C083309105A1F0CE
:1020A00084309105C9F041C089819A812C813D819C
:1020B000FC0120AF31AF18C089819A812C813D810C
:1020C000FC0122AF33AF10C089819A812C813D8100
:1020D000FC0124AF35AF08C089819A812C813D81F4
:1020E000FC0126AF37AF000020C089819A8180743F
:1020F00099270097D1F08B81882F90E0813091054E
:1021000021F08230910549F010C089819A812C819B
:102110003D81FC0120AF31AF08C089819A812C81BB
:102120003D81FC0122AF33AF00002596CDBFDEBF5D
:10213000DF91CF910895CF93DF9300D01F92CDB759
:10214000DEB789839A836B8389819A81807499270A
:10215000009771F489819A81FC018181982F987F81
:102160008B81892B282F89819A81FC01218313C0BF
:1021700089819A8180749927009769F089819A8171
:10218000FC018181982F987F8B81892B282F898151
:102190009A81FC0121832396CDBFDEBFDF91CF91D1
:1021A0000895CF93DF93CDB7DEB780E098E0F5DEFA
:1021B000DF91CF910895CF93DF93CDB7DEB780E461
:1021C00098E00E940D0480E098E00E940D0465E014
:1021D00080E498E0B0DF65E080E098E0ACDF64EF99
:1021E00071E080E498E0AEDE64EF71E080E098E0BA
:1021F000A9DE61E080E498E0FDDE64E080E498E040
:10220000F9DE60E180E098E0F5DE60E480E098E0EF
:10221000F1DE44EF51E062E080E498E01FDF44EF3C
:1022200051E061E080E498E019DF44EF51E064E0C0
:1022300080E098E013DF44EF51E063E080E098E055
:102240000DDF61ED70E180E098E00E94510461E0F3
:1022500080E098E0FBDD64E080E498E03DDE64E04F
:1022600080E098E039DEDF91CF910895CF93DF933E
:102270001F92CDB7DEB780EA90E027E0FC01228311
:102280007894E3DC40DCC6DC96DF0E943208898368
:102290002DD60E94EC1B0E94EB1D06D080E090E042
:1022A0000F90DF91CF9108952F923F924F925F92BE
:1022B0006F927F928F929F92AF92BF92CF92DF9256
:1022C000EF92FF920F931F93CF93DF93CDB7DEB7BB
:1022D0006A97CDBFDEBF40E050E062E080E498E066
:1022E000BDDE0DDDDC01CB011C012D01612C712C4B
:1022F0004301A22CB32CC42CD52CE62CF72C082D92
:10230000192D2A2D3B2D4C2D5D2D6E2D7F2D802FCF
:10231000912F06E00E941623A22EB32EC42ED52E96
:10232000E62EF72E082F192F2A2D3B2D4C2D5D2D33
:102330006E2D7F2D802F912FA22CB32CC42CD52C49
:10234000E62CF72C082D192D0E943823A22EB32E2F
:10235000C42ED52EE62EF72E082F192F2A2D3B2D11
:102360004C2D5D2D6E2D7F2D802F912F01E00E9431
:102370001623A22EB32EC42ED52EE62EF72E082F0E
:10238000192F2A2D3B2D4C2D5D2D6E2D7F2D802F4D
:10239000912FA22CB32CC42CD52CE62CF72C082D75
:1023A000192D0E943823A22EB32EC42ED52EE62E30
:1023B000F72E082F192F2A2D3B2D4C2D5D2D6E2D1C
:1023C0007F2D802F912F03E00E941623222E332E83
:1023D000442E552E662E772E882E992EA22CB32CA5
:1023E000C42CD52CE62CF72C082D192D2A2C3B2C8F
:1023F0004C2C5D2C6E2C7F2C802E912E222D332D7B
:10240000442D552D662D772D882D992D29513C4F22
:102410004F4F5F4F6F4F7F4F8F4F9F4FA22EB32E67
:10242000C42ED52EE62EF72E082F192F2A2D3B2D40
:102430004C2D5D2D6E2D7F2D802F912F0E943521EB
:10244000DC01CB0120E030E84BEB55E4BC01CD01D1
:102450000E942520DC01CB01BC01CD010E9492200D
:10246000A22EB32EC42ED52EE62EF72E082F192F0E
:10247000D601C501BC01CD014EDC44EF51E062E064
:1024800080E498E0EBDD40E050E061E080E498E03B
:10249000E5DD35DCDC01CB011C012D01612C712C4B
:1024A0004301A22CB32CC42CD52CE62CF72C082DE0
:1024B000192D2A2D3B2D4C2D5D2D6E2D7F2D802F1E
:1024C000912F06E00E941623A22EB32EC42ED52EE5
:1024D000E62EF72E082F192F2A2D3B2D4C2D5D2D82
:1024E0006E2D7F2D802F912FA22CB32CC42CD52C98
:1024F000E62CF72C082D192D0E943823A22EB32E7E
:10250000C42ED52EE62EF72E082F192F2A2D3B2D5F
:102510004C2D5D2D6E2D7F2D802F912F01E00E947F
:102520001623A22EB32EC42ED52EE62EF72E082F5C
:10253000192F2A2D3B2D4C2D5D2D6E2D7F2D802F9B
:10254000912FA22CB32CC42CD52CE62CF72C082DC3
:10255000192D0E943823A22EB32EC42ED52EE62E7E
:10256000F72E082F192F2A2D3B2D4C2D5D2D6E2D6A
:102570007F2D802F912F03E00E941623222E332ED1
:10258000442E552E662E772E882E992EA22CB32CF3
:10259000C42CD52CE62CF72C082D192D2A2C3B2CDD
:1025A0004C2C5D2C6E2C7F2C802E912E222D332DC9
:1025B000442D552D662D772D882D992D29513C4F71
:1025C0004F4F5F4F6F4F7F4F8F4F9F4FA22EB32EB6
:1025D000C42ED52EE62EF72E082F192F2A2D3B2D8F
:1025E0004C2D5D2D6E2D7F2D802F912F0E9435213A
:1025F000DC01CB0120E030E84BEB55E4BC01CD0120
:102600000E942520DC01CB01BC01CD010E9492205B
:10261000A22EB32EC42ED52EE62EF72E082F192F5C
:10262000D601C501BC01CD0176DB44EF51E061E08C
:1026300080E498E013DD40E050E064E080E098E062
:102640000DDD5DDBDC01CB011C012D01612C712C4A
:102650004301A22CB32CC42CD52CE62CF72C082D2E
:10266000192D2A2D3B2D4C2D5D2D6E2D7F2D802F6C
:10267000912F06E00E941623A22EB32EC42ED52E33
:10268000E62EF72E082F192F2A2D3B2D4C2D5D2DD0
:102690006E2D7F2D802F912FA22CB32CC42CD52CE6
:1026A000E62CF72C082D192D0E943823A22EB32ECC
:1026B000C42ED52EE62EF72E082F192F2A2D3B2DAE
:1026C0004C2D5D2D6E2D7F2D802F912F01E00E94CE
:1026D0001623A22EB32EC42ED52EE62EF72E082FAB
:1026E000192F2A2D3B2D4C2D5D2D6E2D7F2D802FEA
:1026F000912FA22CB32CC42CD52CE62CF72C082D12
:10270000192D0E943823A22EB32EC42ED52EE62ECC
:10271000F72E082F192F2A2D3B2D4C2D5D2D6E2DB8
:102720007F2D802F912F03E00E941623222E332E1F
:10273000442E552E662E772E882E992EA22CB32C41
:10274000C42CD52CE62CF72C082D192D2A2C3B2C2B
:102750004C2C5D2C6E2C7F2C802E912E222D332D17
:10276000442D552D662D772D882D992D29513C4FBF
:102770004F4F5F4F6F4F7F4F8F4F9F4FA22EB32E04
:10278000C42ED52EE62EF72E082F192F2A2D3B2DDD
:102790004C2D5D2D6E2D7F2D802F912F0E94352188
:1027A000DC01CB0120E030E84BEB55E4BC01CD016E
:1027B0000E942520DC01CB01BC01CD010E949220AA
:1027C000A22EB32EC42ED52EE62EF72E082F192FAB
:1027D000D601C501BC01CD019EDA44EF51E064E0B1
:1027E00080E098E03BDC40E050E063E080E098E08F
:1027F00035DC85DADC01CB011C012D01612C712C4B
:102800004301A22CB32CC42CD52CE62CF72C082D7C
:10281000192D2A2D3B2D4C2D5D2D6E2D7F2D802FBA
:10282000912F06E00E941623A22EB32EC42ED52E81
:10283000E62EF72E082F192F2A2D3B2D4C2D5D2D1E
:102840006E2D7F2D802F912FA22CB32CC42CD52C34
:10285000E62CF72C082D192D0E943823A22EB32E1A
:10286000C42ED52EE62EF72E082F192F2A2D3B2DFC
:102870004C2D5D2D6E2D7F2D802F912F01E00E941C
:102880001623A22EB32EC42ED52EE62EF72E082FF9
:10289000192F2A2D3B2D4C2D5D2D6E2D7F2D802F38
:1028A000912FA22CB32CC42CD52CE62CF72C082D60
:1028B000192D0E943823A22EB32EC42ED52EE62E1B
:1028C000F72E082F192F2A2D3B2D4C2D5D2D6E2D07
:1028D0007F2D802F912F03E00E941623222E332E6E
:1028E000442E552E662E772E882E992EA22CB32C90
:1028F000C42CD52CE62CF72C082D192D2A2C3B2C7A
:102900004C2C5D2C6E2C7F2C802E912E222D332D65
:10291000442D552D662D772D882D992D29513C4F0D
:102920004F4F5F4F6F4F7F4F8F4F9F4FA22EB32E52
:10293000C42ED52EE62EF72E082F192F2A2D3B2D2B
:102940004C2D5D2D6E2D7F2D802F912F0E943521D6
:10295000DC01CB0120E030E84BEB55E4BC01CD01BC
:102960000E942520DC01CB01BC01CD010E949220F8
:10297000A22EB32EC42ED52EE62EF72E082F192FF9
:10298000D601C501BC01CD01C6D944EF51E063E0D9
:1029900080E098E063DB19821A821B821C82AFD927
:1029A000DC01CB018C019D0140E050E0BA010B87B6
:1029B0001C872D873E874F87588B698B7A8B8B843A
:1029C0009C84AD84BE84CF84D888E988FA88282D79
:1029D000392D4A2D5B2D6C2D7D2D8E2D9F2D02E0E6
:1029E0000E941623A22EB32EC42ED52EE62EF72E2D
:1029F000082F192F2A2D3B2D4C2D5D2D6E2D7F2D4F
:102A0000802F912FAB84BC84CD84DE84EF84F88842
:102A100009891A890E943823822E932EA42EB52E5E
:102A2000C62ED72EE82EF92E282D392D4A2D5B2DB6
:102A30006C2D7D2D8E2D9F2D05E00E9416232B8B56
:102A40003C8B4D8B5E8B6F8B788F898F9A8F282D67
:102A5000392D4A2D5B2D6C2D7D2D8E2D9F2DAB8814
:102A6000BC88CD88DE88EF88F88C098D1A8D0E948D
:102A70002F23A22EB32EC42ED52EE62EF72E082FEE
:102A8000192F2A2D3B2D4C2D5D2D6E2D7F2D802F46
:102A9000912FAB84BC84CD84DE84EF84F8880989CF
:102AA0001A890E942F23A22EB32EC42ED52EE62ED5
:102AB000F72E082F192F2A2D3B2D4C2D5D2D6E2D15
:102AC0007F2D802F912F29513C4F4F4F5F4F6F4FDC
:102AD0007F4F8F4F9F4FA22EB32EC42ED52EE62EA2
:102AE000F72E082F192F2A2D3B2D4C2D5D2D6E2DE5
:102AF0007F2D802F912F0E943521DC01CB0120E01A
:102B000030E84BEB55E4BC01CD010E942520DC01EF
:102B1000CB01BC01CD010E949220A22EB32EC42E67
:102B2000D52EE62EF72E082F192FD601C501BC0190
:102B3000CD01F1D820E030E040E251E469817A81B2
:102B40008B819C810E945B1FDC01CB0189839A836E
:102B5000AB83BC8320E030E044EB53E469817A81AD
:102B60008B819C810E941D22181684F420E030E0A5
:102B700044EB53E469817A818B819C810E945A1FC6
:102B8000DC01CB0189839A83AB83BC8320E030E0F6
:102B900044EB52E469817A818B819C810E942520DB
:102BA000DC01CB018D839E83AF83B88769817A81F5
:102BB0008B819C810E94CC20DC01CB018370992702
:102BC00089879A8720E030E0A9016D817E818F811D
:102BD00098850E941D2288230CF458C020E030E024
:102BE00040E85FE36D817E818F8198850E9421207E
:102BF00088230CF04BC049855A852CE231E0429F76
:102C0000C001439F900D529F900D11249C01A3E899
:102C1000BDE20E940723929582958F7089279F704D
:102C2000892788539F4FAC0162E080E498E016DA70
:102C300049855A852CE231E0429FC001439F900DA7
:102C4000529F900D11249C01A3E8BDE20E9407232E
:102C5000929582958F7089279F70892724EF31E0A4
:102C6000A901481B590BCA01AC0161E080E498E05E
:102C7000F5D944EF51E064E080E098E0EFD944EF0B
:102C800051E063E080E098E0E9D92FC120E030E036
:102C900040E85FE36D817E818F8198850E941D22CF
:102CA00088230CF458C020E030E040E050E46D810F
:102CB0007E818F8198850E94212088230CF04BC053
:102CC00044EF51E062E080E498E0C8D949855A8534
:102CD0002CE231E0429FC001439F900D529F900D26
:102CE00011249C01A3E8BDE20E94072392958295DE
:102CF0008F7089279F70892788539F4FAC0161E0AF
:102D000080E498E0ABD949855A852CE231E0429FB6
:102D1000C001439F900D529F900D11249C01A3E888
:102D2000BDE20E940723929582958F7089279F703C
:102D3000892724EF31E0B901681B790BCB01AC0185
:102D400064E080E098E08AD944EF51E063E080E0FD
:102D500098E084D9CAC020E030E040E050E46D81C2
:102D60007E818F8198850E941D2288230CF458C093
:102D700020E030E040E450E46D817E818F819885D1
:102D80000E94212088230CF04BC044EF51E062E008
:102D900080E498E063D944EF51E061E080E498E09A
:102DA0005DD949855A852CE231E0429FC001439F9D
:102DB000900D529F900D11249C01A3E8BDE20E944A
:102DC0000723929582958F7089279F708927885352
:102DD0009F4FAC0164E080E098E040D949855A8576
:102DE0002CE231E0429FC001439F900D529F900D15
:102DF00011249C01A3E8BDE20E94072392958295CD
:102E00008F7089279F70892724EF31E08901081B83
:102E1000190BC801AC0163E080E098E01FD965C0E0
:102E200020E030E040E450E46D817E818F81988520
:102E30000E941D2288230CF4B2CD20E030E040E84F
:102E400050E46D817E818F8198850E9421208823A6
:102E50000CF0A5CD49855A852CE231E0429FC00196
:102E6000439F900D529F900D11249C01A3E8BDE259
:102E70000E940723929582958F7089279F708927DA
:102E800024EF31E0A901481B590BCA01AC0162E0F3
:102E900080E498E0E3D844EF51E061E080E498E01A
:102EA000DDD844EF51E064E080E098E0D7D8498570
:102EB0005A852CE231E0429FC001439F900D529F02
:102EC000900D11249C01A3E8BDE20E940723929576
:102ED00082958F7089279F70892788539F4FAC01F7
:102EE00063E080E098E0BAD85ACD59CD2F923F9256
:102EF0004F925F926F927F928F929F92AF92BF920A
:102F0000CF92DF92EF92FF920F931F93CF93DF93B5
:102F1000CDB7DEB7AE97CDBFDEBF19821A821B8256
:102F20001C821D821E821F8218860E947F0EDC0179
:102F3000CB011C012D01612C712C4301A22CB32C5F
:102F4000C42CD52CE62CF72C082D192D2A2D3B2D21
:102F50004C2D5D2D6E2D7F2D802F912F06E00E9430
:102F60001623A22EB32EC42ED52EE62EF72E082F12
:102F7000192F2A2D3B2D4C2D5D2D6E2D7F2D802F51
:102F8000912FA22CB32CC42CD52CE62CF72C082D79
:102F9000192D0E943823A22EB32EC42ED52EE62E34
:102FA000F72E082F192F2A2D3B2D4C2D5D2D6E2D20
:102FB0007F2D802F912F01E00E941623A22EB32E89
:102FC000C42ED52EE62EF72E082F192F2A2D3B2D95
:102FD0004C2D5D2D6E2D7F2D802F912FA22CB32C8B
:102FE000C42CD52CE62CF72C082D192D0E94382343
:102FF000A22EB32EC42ED52EE62EF72E082F192F73
:103000002A2D3B2D4C2D5D2D6E2D7F2D802F912F48
:1030100003E00E941623222E332E442E552E662EB8
:10302000772E882E992EA22CB32CC42CD52CE62CCE
:10303000F72C082D192D2A2C3B2C4C2C5D2C6E2C9A
:103040007F2C802E912E222D332D442D552D662D33
:10305000772D882D992D29513C4F4F4F5F4F6F4F42
:103060007F4F8F4F9F4FA22EB32EC42ED52EE62E0C
:10307000F72E082F192F2A2D3B2D4C2D5D2D6E2D4F
:103080007F2D802F912F0E943521DC01CB0120E084
:1030900030E84BEB55E4BC01CD01D7D7DC01CB01C7
:1030A000BC01CD010E949220A22EB32EC42ED52E9B
:1030B000E62EF72E082F192FD601C501BC01CD0130
:1030C0000E948B0E0E947F08882309F097C00E94FF
:1030D0007F0EDC01CB019C01AD0160E070E0CB0113
:1030E000822E932EA42EB52EC62ED72EE82EF92E84
:1030F000282D392D4A2D5B2D6C2D7D2D8E2D9F2D4C
:1031000001E00E9416232F87388B498B5A8B6B8BDB
:103110007C8B8D8B9E8B8F849888A988BA88CB886E
:10312000DC88ED88FE88282D392D4A2D5B2D6C2DED
:103130007D2D8E2D9F2D02E00E9416232F8B388F20
:10314000498F5A8F6B8F7C8F8D8F9E8F282D392DB5
:103150004A2D5B2D6C2D7D2D8E2D9F2DAF88B88C2B
:10316000C98CDA8CEB8CFC8C0D8D1E8D0E942F236C
:10317000A22EB32EC42ED52EE62EF72E082F192FF1
:103180002A2D3B2D4C2D5D2D6E2D7F2D802F912FC7
:1031900029513C4F4F4F5F4F6F4F7F4F8F4F9F4F86
:1031A000A22EB32EC42ED52EE62EF72E082F192FC1
:1031B0002A2D3B2D4C2D5D2D6E2D7F2D802F912F97
:1031C0000E943521DC01CB0120E030E84BEB55E4D7
:1031D000BC01CD013AD7DC01CB01BC01CD01A2D7A6
:1031E000A22EB32EC42ED52EE62EF72E082F192F81
:1031F000D601C501BC01CD010E948B0E0E94F409CD
:10320000DC01CB0189839A83AB83BC8361E08BE1D2
:103210000E94950E20E030E044EB53E469817A810E
:103220008B819C810E941D22181644F480E090E05E
:10323000A4EBB3E489839A83AB83BC8329813A816D
:103240004B815C8160E070E084EB93E433D6DC0179
:10325000CB0189839A83AB83BC832D813E814F81CF
:10326000588569817A818B819C8125D6DC01CB01CF
:1032700089839A83AB83BC8320E030E044EB53E442
:1032800069817A818B819C810E941D2218167CF4B1
:1032900020E030E044EB53E469817A818B819C81AA
:1032A00009D6DC01CB0189839A83AB83BC8320E000
:1032B00030E044EB52E469817A818B819C81C5D6F0
:1032C000DC01CB0189879A87AB87BC8769817A81CA
:1032D0008B819C8161D7DC01CB01837099278D871D
:1032E0009E8720E030E0A90169857A858B859C85E1
:1032F0000E941D2288230CF45BC020E030E040E8EF
:103300005FE369857A858B859C859BD688230CF045
:103310004FC04D855E852CE231E0429FC001439F46
:10332000900D529F900D11249C01A3E8BDE20E94D4
:103330000723929582958F7089279F7089278853DC
:103340009F4FAC0162E080E498E00E942E104D8512
:103350005E852CE231E0429FC001439F900D529F59
:10336000900D11249C01A3E8BDE20E9407239295D1
:1033700082958F7089279F70892724EF31E0A901FA
:10338000481B590BCA01AC0161E080E498E00E943F
:103390002E1044EF51E064E080E098E00E942E108F
:1033A00044EF51E063E080E098E00E942E1035C1C8
:1033B00020E030E040E85FE369857A858B859C8575
:1033C0000E941D2288230CF45BC020E030E040E026
:1033D00050E469857A858B859C8533D688230CF0EB
:1033E0004FC044EF51E062E080E498E00E942E106C
:1033F0004D855E852CE231E0429FC001439F900DD8
:10340000529F900D11249C01A3E8BDE20E94072366
:10341000929582958F7089279F70892788539F4F37
:10342000AC0161E080E498E00E942E104D855E853D
:103430002CE231E0429FC001439F900D529F900DBE
:1034400011249C01A3E8BDE20E9407239295829576
:103450008F7089279F70892724EF31E0A901481BCD
:10346000590BCA01AC0164E080E098E00E942E1084
:1034700044EF51E063E080E098E00E942E10CDC060
:1034800020E030E040E050E469857A858B859C85BA
:10349000D4D788230CF45BC020E030E040E450E453
:1034A00069857A858B859C85CCD588230CF04FC0A7
:1034B00044EF51E062E080E498E00E942E1044EF77
:1034C00051E061E080E498E00E942E104D855E8519
:1034D0002CE231E0429FC001439F900D529F900D1E
:1034E00011249C01A3E8BDE20E94072392958295D6
:1034F0008F7089279F70892788539F4FAC0164E0A4
:1035000080E098E00E942E104D855E852CE231E02F
:10351000429FC001439F900D529F900D11249C012A
:10352000A3E8BDE20E940723929582958F708927B8
:103530009F70892724EF31E0A901481B590BCA016C
:10354000AC0163E080E098E00E942E1066C020E0AD
:1035500030E040E450E469857A858B859C856DD7A1
:1035600088230CF45AC020E030E040E850E469853C
:103570007A858B859C8565D588230CF04EC04D855A
:103580005E852CE231E0429FC001439F900D529F27
:10359000900D11249C01A3E8BDE20E94072392959F
:1035A00082958F7089279F70892724EF31E0A901C8
:1035B000481B590BCA01AC0162E080E498E00E940C
:1035C0002E1044EF51E061E080E498E00E942E105C
:1035D00044EF51E064E080E098E00E942E104D85B9
:1035E0005E852CE231E0429FC001439F900D529FC7
:1035F000900D11249C01A3E8BDE20E94072392953F
:1036000082958F7089279F70892788539F4FAC01BF
:1036100063E080E098E00E942E1060E08BE10E9461
:10362000950E0E947F0EDC01CB019C01AD0160E094
:1036300070E0CB01822E932EA42EB52EC62ED72E4F
:10364000E82EF92E282D392D4A2D5B2D6C2D7D2D40
:103650008E2D9F2D02E0EAD72F8F38A349A35AA3BE
:103660006BA37CA38DA39EA38F8C98A0A9A0BAA0C6
:10367000CBA0DCA0EDA0FEA0282D392D4A2D5B2D7E
:103680006C2D7D2D8E2D9F2D02E0D0D72FA338A736
:1036900049A75AA76BA77CA78DA79EA7282D392DD0
:1036A0004A2D5B2D6C2D7D2D8E2D9F2DAFA0B8A4A6
:1036B000C9A4DAA4EBA4FCA40DA51EA5D0D7222E84
:1036C000332E442E552E662E772E882E992E222D9F
:1036D000332D442D552D662D772D882D992D04E001
:1036E000A5D7A22EB32EC42ED52EE62EF72E082F48
:1036F000192F2A2D3B2D4C2D5D2D6E2D7F2D802FCA
:10370000912FA22CB32CC42CD52CE62CF72C082DF1
:10371000192DAED7A22EB32EC42ED52EE62EF72EFF
:10372000082F192F2A2D3B2D4C2D5D2D6E2D7F2D11
:10373000802F912F29513C4F4F4F5F4F6F4F7F4F3D
:103740008F4F9F4FA22EB32EC42ED52EE62EF72ECE
:10375000082F192F2A2D3B2D4C2D5D2D6E2D7F2DE1
:10376000802F912F82D5DC01CB0120E030E84BEB9C
:1037700055E4BC01CD0169D4DC01CB01BC01CD0114
:10378000D1D4A22EB32EC42ED52EE62EF72E082F7E
:10379000192FD601C501BC01CD010E948B0E44EF4B
:1037A00051E062E080E498E00E942E1044EF51E086
:1037B00061E080E498E00E942E1044EF51E064E064
:1037C00080E098E00E942E1044EF51E063E080E03A
:1037D00098E00E942E10A9CB8F929F92AF92BF9239
:1037E000CF92DF92EF92FF920F931F93CF93DF93CD
:1037F000CDB7DEB7E897CDBFDEBF2CE0E8E1F0E261
:10380000CE010196DC0101900D922A95E1F78CE042
:10381000E4E2F0E2DE011D9601900D928A95E1F757
:103820000E947F0EDC01CB019C01AD0160E070E0E5
:10383000CB01822E932EA42EB52EC62ED72EE82E87
:10384000F92E282D392D4A2D5B2D6C2D7D2D8E2D99
:103850009F2D01E0EBD6298F3A8F4B8F5C8F6D8FB8
:103860007E8F8F8F98A3898C9A8CAB8CBC8CCD8CDF
:10387000DE8CEF8CF8A0282D392D4A2D5B2D6C2D78
:103880007D2D8E2D9F2D02E0D1D629A33AA34BA3E7
:103890005CA36DA37EA38FA398A7282D392D4A2D55
:1038A0005B2D6C2D7D2D8E2D9F2DA9A0BAA0CBA0B8
:1038B000DCA0EDA0FEA00FA118A5D1D6A22EB32E9C
:1038C000C42ED52EE62EF72E082F192F2A2D3B2D8C
:1038D0004C2D5D2D6E2D7F2D802F912F29513C4F2A
:1038E0004F4F5F4F6F4F7F4F8F4F9F4FA22EB32E83
:1038F000C42ED52EE62EF72E082F192F2A2D3B2D5C
:103900004C2D5D2D6E2D7F2D802F912FAED4DC019F
:10391000CB0120E030E84BEB55E4BC01CD0195D361
:10392000DC01CB01BC01CD01FDD3A22EB32EC42EF0
:10393000D52EE62EF72E082F192FD601C501BC0172
:10394000CD010E948B0E0E947F08882309F093C04E
:103950000E947F0EDC01CB019C01AD0160E070E0B4
:10396000CB01822E932EA42EB52EC62ED72EE82E56
:10397000F92E282D392D4A2D5B2D6C2D7D2D8E2D68
:103980009F2D01E053D629A73AA74BA75CA76DA7A7
:103990007EA78FA798AB89A49AA4ABA4BCA4CDA4FE
:1039A000DEA4EFA4F8A8282D392D4A2D5B2D6C2D0F
:1039B0007D2D8E2D9F2D02E039D629AB3AAB4BAB36
:1039C0005CAB6DAB7EAB8FAB98AF282D392D4A2DFC
:1039D0005B2D6C2D7D2D8E2D9F2DA9A8BAA8CBA86F
:1039E000DCA8EDA8FEA80FA918AD39D6A22EB32EDB
:1039F000C42ED52EE62EF72E082F192F2A2D3B2D5B
:103A00004C2D5D2D6E2D7F2D802F912F29513C4FF8
:103A10004F4F5F4F6F4F7F4F8F4F9F4FA22EB32E51
:103A2000C42ED52EE62EF72E082F192F2A2D3B2D2A
:103A30004C2D5D2D6E2D7F2D802F912F16D4DC0106
:103A4000CB0120E030E84BEB55E4BC01CD01FDD2C9
:103A5000DC01CB01BC01CD0165D3A22EB32EC42E57
:103A6000D52EE62EF72E082F192FD601C501BC0141
:103A7000CD010E948B0E89819A81AB81BC812091FE
:103A80006520309166204091672050916820BC01EC
:103A9000CD01D3D4181664F48091652090916620EE
:103AA000A0916720B091682089839A83AB83BC83FF
:103AB0008D819E81AF81B8852091692030916A20E7
:103AC00040916B2050916C20BC01CD01B6D41816EA
:103AD00064F48091692090916A20A0916B20B0914C
:103AE0006C208D839E83AF83B88789859A85AB854B
:103AF000BC8520916D2030916E2040916F205091B7
:103B00007020BC01CD0199D4181664F480916D2009
:103B100090916E20A0916F20B091702089879A8734
:103B2000AB87BC878D859E85AF85B8892091652040
:103B3000309166204091672050916820BC01CD01F2
:103B400080D2882364F48091652090916620A091B2
:103B50006720B09168208D879E87AF87B88B898951
:103B60009A89AB89BC892091692030916A20409163
:103B70006B2050916C20BC01CD0163D2882364F48A
:103B80008091692090916A20A0916B20B0916C2067
:103B9000898B9A8BAB8BBC8B8D899E89AF89B88DB5
:103BA00020916D2030916E2040916F2050917020B7
:103BB000BC01CD0146D288230CF032CE80916D201D
:103BC00090916E20A0916F20B09170208D8B9E8B74
:103BD000AF8BB88F25CE8F929F92AF92BF92CF922C
:103BE000DF92EF92FF920F931F93CF93DF93CDB7A6
:103BF000DEB7A497CDBFDEBF19821A821B821C825A
:103C00000E947F0EDC01CB019C01AD0160E070E001
:103C1000CB01822E932EA42EB52EC62ED72EE82EA3
:103C2000F92E282D392D4A2D5B2D6C2D7D2D8E2DB5
:103C30009F2D01E0FBD42D833E834F8358876987F6
:103C40007A878B879C878D809E80AF80B884C9845B
:103C5000DA84EB84FC84282D392D4A2D5B2D6C2DC4
:103C60007D2D8E2D9F2D02E0E1D42D873E874F873D
:103C7000588B698B7A8B8B8B9C8B282D392D4A2DF9
:103C80005B2D6C2D7D2D8E2D9F2DAD84BE84CF841C
:103C9000D888E988FA880B891C89E1D4A22EB32E32
:103CA000C42ED52EE62EF72E082F192F2A2D3B2DA8
:103CB0004C2D5D2D6E2D7F2D802F912F29513C4F46
:103CC0004F4F5F4F6F4F7F4F8F4F9F4FA22EB32E9F
:103CD000C42ED52EE62EF72E082F192F2A2D3B2D78
:103CE0004C2D5D2D6E2D7F2D802F912FBED2DC01AE
:103CF000CB0120E030E84BEB55E4BC01CD01A5D170
:103D0000DC01CB01BC01CD010DD2A22EB32EC42EFD
:103D1000D52EE62EF72E082F192FD601C501BC018E
:103D2000CD010E948B0E0E947F08882309F093C06A
:103D30000E947F0EDC01CB019C01AD0160E070E0D0
:103D4000CB01822E932EA42EB52EC62ED72EE82E72
:103D5000F92E282D392D4A2D5B2D6C2D7D2D8E2D84
:103D60009F2D01E063D42D8B3E8B4F8B588F698F35
:103D70007A8F8B8F9C8F8D889E88AF88B88CC98CEA
:103D8000DA8CEB8CFC8C282D392D4A2D5B2D6C2D7B
:103D90007D2D8E2D9F2D02E049D42D8F3E8F4F8F8C
:103DA00058A369A37AA38BA39CA3282D392D4A2D50
:103DB0005B2D6C2D7D2D8E2D9F2DAD8CBE8CCF8CD3
:103DC000D8A0E9A0FAA00BA11CA149D4A22EB32E21
:103DD000C42ED52EE62EF72E082F192F2A2D3B2D77
:103DE0004C2D5D2D6E2D7F2D802F912F29513C4F15
:103DF0004F4F5F4F6F4F7F4F8F4F9F4FA22EB32E6E
:103E0000C42ED52EE62EF72E082F192F2A2D3B2D46
:103E10004C2D5D2D6E2D7F2D802F912F26D2DC0114
:103E2000CB0120E030E84BEB55E4BC01CD010DD1D6
:103E3000DC01CB01BC01CD0175D1A22EB32EC42E65
:103E4000D52EE62EF72E082F192FD601C501BC015D
:103E5000CD010E948B0E0E94F409DC01CB01898305
:103E60009A83AB83BC838BE10E94EB0E20E030E0B1
:103E70004FEA53E469817A818B819C81DED21816E6
:103E80005CF020E030E040E251E469817A818B818E
:103E90009C81D7D088232CF461E08BE10E94950EA1
:103EA00004C060E08BE10E94950E19821A821B8289
:103EB0001C82A6CE5058BB27AA270ED084C275D22A
:103EC00030F07AD220F031F49F3F11F41EF435C265
:103ED0000EF4E095E7FB2BC2E92F86D280F3BA17E8
:103EE000620773078407950718F071F49EF59EC268
:103EF0000EF4E0950B2EBA2FA02D0B01B901900105
:103F00000C01CA01A0011124FF27591B99F0593F48
:103F100050F4503E68F11A16F040A22F232F342F90
:103F20004427585FF3CF469537952795A795F040DE
:103F30005395C9F77EF41F16BA0B620B730B840BF3
:103F4000BAF09150A1F0FF0FBB1F661F771F881FAB
:103F5000C2F70EC0BA0F621F731F841F48F4879503
:103F600077956795B795F7959E3F08F0B3CF9395F2
:103F7000880F08F09927EE0F97958795089515D229
:103F800058F080E891E009F49EEF16D228F040E85E
:103F900051E059F45EEF09C0D0C148C2E92FE07882
:103FA00023D268F3092E052AC1F3261737074807DD
:103FB000590738F00E2E07F8E02569F0E025E06497
:103FC0000AC0EF6307F8009407FADB01B9019D010D
:103FD000DC01CA01AD01EF9347D0F5D10AD05F9162
:103FE000552331F02BED3FE049E450FD49EC63CF20
:103FF0000895DF93DD27B92FBF7740E85FE31616FA
:10400000170648075B0710F4D92F1BD29F938F9395
:104010007F936F93C2D2ECEAF0E0A2D1D4D12F917A
:104020003F914F915F9120D2DD2349F09058A2EA51
:104030002AED3FE049EC5FE3D0785D274DDFDF916B
:10404000C2C151D108F481E008950CD0BCC1B4D1F3
:1040500040F0ABD130F021F45F3F19F068C151114D
:10406000E6C16BC1C1D198F39923C9F35523B1F3CC
:10407000951B550BBB27AA2762177307840738F0D7
:104080009F5F5F4F220F331F441FAA1FA9F333D036
:104090000E2E3AF0E0E830D091505040E695001CEA
:1040A000CAF729D0FE2F27D0660F771F881FBB1FA6
:1040B000261737074807AB07B0E809F0BB0B802D80
:1040C000BF01FF2793585F4F2AF09E3F510568F0CC
:1040D0002EC1ADC15F3FECF3983EDCF3869577953A
:1040E0006795B795F7959F5FC9F7880F911D9695CE
:1040F000879597F90895E1E0660F771F881FBB1F2A
:10410000621773078407BA0720F0621B730B840BD6
:10411000BA0BEE1F88F7E0950895BEE304D008F4CB
:1041200090E80895BFE322273327A90165D158F10C
:104130009F5740F1B91738F1BFE3B91B9927B85021
:104140003AF4660F771F881F991FB395D2F316C0F4
:10415000B8504AF0232F342F452F562F672F782F32
:104160008827B850BAF7B85F49F086957795679574
:104170005795479537952795BA95B9F70EF4E0D03E
:1041800088940895889460E070E0CB01089504D08D
:104190006894B1114CC108952FD188F09F5790F0C9
:1041A000B92F9927B751A0F0D1F0660F771F881F5C
:1041B000991F1AF0BA95C9F712C0B13081F036D103
:1041C000B1E0089533C1672F782F8827B85F39F0A1
:1041D000B93FCCF3869577956795B395D9F73EF4BB
:1041E00090958095709561957F4F8F4F9F4F089563
:1041F000E89409C097FB3EF4909580957095619581
:104200007F4F8F4F9F4F9923A9F0F92F96E9BB2736
:104210009395F695879577956795B795F111F8CFB2
:10422000FAF4BB0F11F460FF1BC06F5F7F4F8F4F1D
:104230009F4F16C0882311F096E911C0772321F013
:104240009EE8872F762F05C0662371F096E8862FAB
:1042500070E060E02AF09A95660F771F881FDAF702
:10426000880F9695879597F90895E894F92F96EB1E
:10427000FF2381F0121613061406440B9395F6954E
:1042800087957795679557954040FF23B9F71BC0F1
:1042900099270895882351F49850D2F7872B762FC9
:1042A000652F542F432F322F20E0B1F3121613063F
:1042B0001406440B88233AF09A95440F551F661F45
:1042C000771F881FCAF755234AF4440F551F11F46E
:1042D00060FF04C06F5F7F4F8F4F9F4F880F969591
:1042E000879597F90895990F0008550FAA0BE0E8F4
:1042F000FEEF16161706E807F907C0F012161306A8
:10430000E407F50798F0621B730B840B950B39F4E7
:104310000A2661F0232B242B252B21F408950A264D
:1043200009F4A140A6958FEF811D811D089597F98D
:104330009F6780E870E060E008959FEF80EC08954B
:104340009095809570956095509540953095219504
:104350003F4F4F4F5F4F6F4F7F4F8F4F9F4F08958E
:10436000DF93CF931F930F93FF92EF92DF927B0126
:104370008C01689405C0DA2EEF0176D0FE01E89436
:10438000A5912591359145915591AEF3EF01A4DDAD
:10439000FE019701A801DA9479F7DF90EF90FF9082
:1043A0000F911F91CF91DF91089500240A94161662
:1043B000170618060906089500240A941216130613
:1043C000140605060895092E0394000C11F48823A1
:1043D00052F0BB0F40F4BF2B11F460FF04C06F5FBD
:1043E0007F4F8F4F9F4F089557FD9058440F551F93
:1043F00059F05F3F71F04795880F97FB991F61F067
:104400009F3F79F087950895121613061406551FDD
:10441000F2CF4695F1DF08C0161617061806991F49
:10442000F1CF86957105610508940895E894BB273E
:1044300066277727CB0197F9089555DF08F48FEFAA
:1044400008959B01AC0160E070E080E89FE3FDCD42
:104450000BD0B9CFAADF28F0AFDF18F0952309F011
:1044600066CF6BCF1124E3CFBFDFA0F3959FD1F3CD
:10447000950F50E0551F629FF001729FBB27F00D12
:10448000B11D639FAA27F00DB11DAA1F649F662767
:10449000B00DA11D661F829F2227B00DA11D621FB6
:1044A000739FB00DA11D621F839FA00D611D221F70
:1044B000749F3327A00D611D231F849F600D211D54
:1044C000822F762F6A2F11249F5750408AF0E1F0F7
:1044D00088234AF0EE0FFF1FBB1F661F771F881F40
:1044E00091505040A9F79E3F510570F020CF9FCFCB
:1044F0005F3FECF3983EDCF3869577956795B7952B
:10450000F795E7959F5FC1F7FE2B880F911D969554
:10451000879597F9089511F40EF40FCF41C06CDF21
:10452000D0F39923D9F3CEF39F57550B87FF46D08D
:104530000024A0E640EA900180585695979528F40B
:10454000805C660F771F881F20F026173707480703
:1045500030F4621B730B840B202931294A2BA6955A
:1045600017940794202531254A2758F7660F771F9F
:10457000881F20F026173707480730F4620B730BAB
:10458000840B200D311D411DA09581F7B901842FA9
:104590009158880F9695879508959B01AC0158CF47
:1045A0009F3F31F0915020F4879577956795B795A7
:1045B000880F911D9695879597F9089591505040D1
:1045C000660F771F881FD2F70895A1E21A2EAA1B43
:1045D000BB1BFD010DC0AA1FBB1FEE1FFF1FA217B3
:1045E000B307E407F50720F0A21BB30BE40BF50BB0
:1045F000661F771F881F991F1A9469F76095709539
:10460000809590959B01AC01BD01CF010895A29FBB
:10461000B001B39FC001A39F700D811D1124911D96
:10462000B29F700D811D1124911D08950F930830C4
:1046300090F0982F872F762F652F542F432F322FEE
:1046400022270850F4CF220F331F441F551F661F27
:10465000771F881F991F0A95B2F70F9108952A0DA9
:104660003B1D4C1D5D1D6E1D7F1D801F911F0895FC
:104670002A193B094C095D096E097F09800B910BD2
:064680000895F894FFCF3D
:1046860000700EC5009037C5000034C50080D244C6
:1046960000B01C4500B0184500FEFF4600FEFF4670
:1046A60000FEFF46000000C7000000C7000000C76C
:00000001FF
